{
    "_format": "hh-sol-artifact-1",
    "contractName": "SunRaise",
    "sourceName": "contracts/SunRaise.sol",
    "abi": [
        {
            "inputs": [],
            "stateMutability": "nonpayable",
            "type": "constructor"
        },
        {
            "anonymous": false,
            "inputs": [
                {
                    "indexed": false,
                    "internalType": "uint256",
                    "name": "idCampaign",
                    "type": "uint256"
                },
                {
                    "indexed": false,
                    "internalType": "address",
                    "name": "sender",
                    "type": "address"
                },
                {
                    "indexed": false,
                    "internalType": "uint256",
                    "name": "value",
                    "type": "uint256"
                }
            ],
            "name": "Contribute",
            "type": "event"
        },
        {
            "anonymous": false,
            "inputs": [
                {
                    "indexed": false,
                    "internalType": "address",
                    "name": "sender",
                    "type": "address"
                },
                {
                    "indexed": false,
                    "internalType": "uint256",
                    "name": "value",
                    "type": "uint256"
                }
            ],
            "name": "Deposit",
            "type": "event"
        },
        {
            "anonymous": false,
            "inputs": [
                {
                    "indexed": false,
                    "internalType": "address",
                    "name": "creator",
                    "type": "address"
                },
                {
                    "indexed": false,
                    "internalType": "string",
                    "name": "name",
                    "type": "string"
                },
                {
                    "indexed": false,
                    "internalType": "uint256",
                    "name": "goal",
                    "type": "uint256"
                },
                {
                    "indexed": false,
                    "internalType": "uint256",
                    "name": "entAt",
                    "type": "uint256"
                }
            ],
            "name": "Launch",
            "type": "event"
        },
        {
            "anonymous": false,
            "inputs": [
                {
                    "indexed": true,
                    "internalType": "address",
                    "name": "previousOwner",
                    "type": "address"
                },
                {
                    "indexed": true,
                    "internalType": "address",
                    "name": "newOwner",
                    "type": "address"
                }
            ],
            "name": "OwnershipTransferred",
            "type": "event"
        },
        {
            "anonymous": false,
            "inputs": [
                {
                    "indexed": false,
                    "internalType": "uint256",
                    "name": "idCampaign",
                    "type": "uint256"
                },
                {
                    "indexed": false,
                    "internalType": "address",
                    "name": "sender",
                    "type": "address"
                },
                {
                    "indexed": false,
                    "internalType": "uint256",
                    "name": "value",
                    "type": "uint256"
                }
            ],
            "name": "Refund",
            "type": "event"
        },
        {
            "inputs": [],
            "name": "balance",
            "outputs": [
                {
                    "internalType": "uint256",
                    "name": "",
                    "type": "uint256"
                }
            ],
            "stateMutability": "view",
            "type": "function"
        },
        {
            "inputs": [
                {
                    "internalType": "uint256",
                    "name": "_id",
                    "type": "uint256"
                }
            ],
            "name": "contribute",
            "outputs": [],
            "stateMutability": "payable",
            "type": "function"
        },
        {
            "inputs": [],
            "name": "count",
            "outputs": [
                {
                    "internalType": "uint256",
                    "name": "",
                    "type": "uint256"
                }
            ],
            "stateMutability": "view",
            "type": "function"
        },
        {
            "inputs": [],
            "name": "deployer",
            "outputs": [
                {
                    "internalType": "address",
                    "name": "",
                    "type": "address"
                }
            ],
            "stateMutability": "view",
            "type": "function"
        },
        {
            "inputs": [
                {
                    "internalType": "address",
                    "name": "_to",
                    "type": "address"
                }
            ],
            "name": "finalize",
            "outputs": [],
            "stateMutability": "nonpayable",
            "type": "function"
        },
        {
            "inputs": [],
            "name": "getAccountBalance",
            "outputs": [
                {
                    "internalType": "uint256",
                    "name": "",
                    "type": "uint256"
                }
            ],
            "stateMutability": "view",
            "type": "function"
        },
        {
            "inputs": [
                {
                    "internalType": "uint256",
                    "name": "_id",
                    "type": "uint256"
                }
            ],
            "name": "getBalance",
            "outputs": [
                {
                    "internalType": "uint256",
                    "name": "",
                    "type": "uint256"
                }
            ],
            "stateMutability": "view",
            "type": "function"
        },
        {
            "inputs": [
                {
                    "internalType": "uint256",
                    "name": "_id",
                    "type": "uint256"
                }
            ],
            "name": "getCampaign",
            "outputs": [
                {
                    "components": [
                        {
                            "internalType": "string",
                            "name": "name",
                            "type": "string"
                        },
                        {
                            "internalType": "string",
                            "name": "description",
                            "type": "string"
                        },
                        {
                            "internalType": "uint256",
                            "name": "goal",
                            "type": "uint256"
                        },
                        {
                            "internalType": "uint256",
                            "name": "total",
                            "type": "uint256"
                        },
                        {
                            "internalType": "uint256",
                            "name": "startAt",
                            "type": "uint256"
                        },
                        {
                            "internalType": "uint256",
                            "name": "endAt",
                            "type": "uint256"
                        },
                        {
                            "internalType": "bool",
                            "name": "claimed",
                            "type": "bool"
                        },
                        {
                            "internalType": "address",
                            "name": "creator",
                            "type": "address"
                        }
                    ],
                    "internalType": "struct SunRaise.Campaign[]",
                    "name": "",
                    "type": "tuple[]"
                }
            ],
            "stateMutability": "view",
            "type": "function"
        },
        {
            "inputs": [],
            "name": "getCampaigns",
            "outputs": [
                {
                    "components": [
                        {
                            "internalType": "string",
                            "name": "name",
                            "type": "string"
                        },
                        {
                            "internalType": "string",
                            "name": "description",
                            "type": "string"
                        },
                        {
                            "internalType": "uint256",
                            "name": "goal",
                            "type": "uint256"
                        },
                        {
                            "internalType": "uint256",
                            "name": "total",
                            "type": "uint256"
                        },
                        {
                            "internalType": "uint256",
                            "name": "startAt",
                            "type": "uint256"
                        },
                        {
                            "internalType": "uint256",
                            "name": "endAt",
                            "type": "uint256"
                        },
                        {
                            "internalType": "bool",
                            "name": "claimed",
                            "type": "bool"
                        },
                        {
                            "internalType": "address",
                            "name": "creator",
                            "type": "address"
                        }
                    ],
                    "internalType": "struct SunRaise.Campaign[]",
                    "name": "",
                    "type": "tuple[]"
                }
            ],
            "stateMutability": "view",
            "type": "function"
        },
        {
            "inputs": [
                {
                    "internalType": "uint256",
                    "name": "_id",
                    "type": "uint256"
                }
            ],
            "name": "getContributorBalance",
            "outputs": [
                {
                    "internalType": "uint256",
                    "name": "",
                    "type": "uint256"
                }
            ],
            "stateMutability": "view",
            "type": "function"
        },
        {
            "inputs": [],
            "name": "getContributorToken",
            "outputs": [
                {
                    "internalType": "uint256",
                    "name": "",
                    "type": "uint256"
                }
            ],
            "stateMutability": "view",
            "type": "function"
        },
        {
            "inputs": [],
            "name": "getTotalToken",
            "outputs": [
                {
                    "internalType": "uint256",
                    "name": "",
                    "type": "uint256"
                }
            ],
            "stateMutability": "view",
            "type": "function"
        },
        {
            "inputs": [
                {
                    "internalType": "string",
                    "name": "_name",
                    "type": "string"
                },
                {
                    "internalType": "uint256",
                    "name": "_goal",
                    "type": "uint256"
                },
                {
                    "internalType": "string",
                    "name": "_description",
                    "type": "string"
                }
            ],
            "name": "launch",
            "outputs": [],
            "stateMutability": "nonpayable",
            "type": "function"
        },
        {
            "inputs": [],
            "name": "owner",
            "outputs": [
                {
                    "internalType": "address",
                    "name": "",
                    "type": "address"
                }
            ],
            "stateMutability": "view",
            "type": "function"
        },
        {
            "inputs": [
                {
                    "internalType": "uint256",
                    "name": "_id",
                    "type": "uint256"
                }
            ],
            "name": "refund",
            "outputs": [],
            "stateMutability": "nonpayable",
            "type": "function"
        },
        {
            "inputs": [],
            "name": "renounceOwnership",
            "outputs": [],
            "stateMutability": "nonpayable",
            "type": "function"
        },
        {
            "inputs": [
                {
                    "internalType": "address",
                    "name": "_newOwner",
                    "type": "address"
                }
            ],
            "name": "setOwner",
            "outputs": [],
            "stateMutability": "nonpayable",
            "type": "function"
        },
        {
            "inputs": [],
            "name": "token",
            "outputs": [
                {
                    "internalType": "contract SolarToken",
                    "name": "",
                    "type": "address"
                }
            ],
            "stateMutability": "view",
            "type": "function"
        },
        {
            "inputs": [
                {
                    "internalType": "address",
                    "name": "newOwner",
                    "type": "address"
                }
            ],
            "name": "transferOwnership",
            "outputs": [],
            "stateMutability": "nonpayable",
            "type": "function"
        },
        {
            "stateMutability": "payable",
            "type": "receive"
        }
    ],
    "bytecode": "0x60806040523480156200001157600080fd5b506200003262000026620000f660201b60201c565b620000fe60201b60201c565b33600360006101000a81548173ffffffffffffffffffffffffffffffffffffffff021916908373ffffffffffffffffffffffffffffffffffffffff1602179055506305f5e1006040516200008690620001c2565b62000092919062000227565b604051809103906000f080158015620000af573d6000803e3d6000fd5b50600160006101000a81548173ffffffffffffffffffffffffffffffffffffffff021916908373ffffffffffffffffffffffffffffffffffffffff16021790555062000244565b600033905090565b60008060009054906101000a900473ffffffffffffffffffffffffffffffffffffffff169050816000806101000a81548173ffffffffffffffffffffffffffffffffffffffff021916908373ffffffffffffffffffffffffffffffffffffffff1602179055508173ffffffffffffffffffffffffffffffffffffffff168173ffffffffffffffffffffffffffffffffffffffff167f8be0079c531659141344cd1fd0a4f28419497f9722a3daafe3b4186f6b6457e060405160405180910390a35050565b61179b806200275f83390190565b6000819050919050565b6000819050919050565b6000819050919050565b60006200020f620002096200020384620001d0565b620001e4565b620001da565b9050919050565b6200022181620001ee565b82525050565b60006020820190506200023e600083018462000216565b92915050565b61250b80620002546000396000f3fe6080604052600436106101185760003560e01c80636896fabf116100a0578063c1cbbca711610064578063c1cbbca7146103d3578063d5f39488146103ef578063d9a799641461041a578063f2fde38b14610443578063fc0c546a1461046c57610158565b80636896fabf14610310578063715018a61461033b5780638da5cb5b14610352578063a6b036331461037d578063b69ef8a8146103a857610158565b80633d0673d4116100e75780633d0673d4146102175780634ef39b75146102425780635598f8cc1461026b578063624d1212146102a857806367641094146102d357610158565b806306661abd1461015d57806313af4035146101885780631e010439146101b1578063278ecde1146101ee57610158565b36610158577fe1fffcc4923d04b559f4d29a8bfc6cda04eb5b0d3c460751c2402c5c5cc9109c333460405161014e92919061185b565b60405180910390a1005b600080fd5b34801561016957600080fd5b50610172610497565b60405161017f9190611884565b60405180910390f35b34801561019457600080fd5b506101af60048036038101906101aa91906118df565b61049d565b005b3480156101bd57600080fd5b506101d860048036038101906101d39190611938565b610525565b6040516101e59190611884565b60405180910390f35b3480156101fa57600080fd5b5061021560048036038101906102109190611938565b61054a565b005b34801561022357600080fd5b5061022c610839565b6040516102399190611884565b60405180910390f35b34801561024e57600080fd5b50610269600480360381019061026491906118df565b6108e8565b005b34801561027757600080fd5b50610292600480360381019061028d9190611938565b6109dc565b60405161029f9190611bb0565b60405180910390f35b3480156102b457600080fd5b506102bd610c6b565b6040516102ca9190611884565b60405180910390f35b3480156102df57600080fd5b506102fa60048036038101906102f59190611938565b610d22565b6040516103079190611884565b60405180910390f35b34801561031c57600080fd5b50610325610d7c565b6040516103329190611884565b60405180910390f35b34801561034757600080fd5b50610350610db3565b005b34801561035e57600080fd5b50610367610dc7565b6040516103749190611bd2565b60405180910390f35b34801561038957600080fd5b50610392610df0565b60405161039f9190611bb0565b60405180910390f35b3480156103b457600080fd5b506103bd61107d565b6040516103ca9190611884565b60405180910390f35b6103ed60048036038101906103e89190611938565b611083565b005b3480156103fb57600080fd5b506104046112e5565b6040516104119190611bd2565b60405180910390f35b34801561042657600080fd5b50610441600480360381019061043c9190611d22565b61130b565b005b34801561044f57600080fd5b5061046a600480360381019061046591906118df565b61150d565b005b34801561047857600080fd5b50610481611591565b60405161048e9190611e0c565b60405180910390f35b60045481565b6104a56115b7565b80600073ffffffffffffffffffffffffffffffffffffffff168173ffffffffffffffffffffffffffffffffffffffff1614156104e057600080fd5b81600360006101000a81548173ffffffffffffffffffffffffffffffffffffffff021916908373ffffffffffffffffffffffffffffffffffffffff1602179055505050565b6000806005600084815260200190815260200160002090508060030154915050919050565b600060056000838152602001908152602001600020905060003390506000600660008373ffffffffffffffffffffffffffffffffffffffff1673ffffffffffffffffffffffffffffffffffffffff1681526020019081526020016000206000858152602001908152602001600020549050600081116105fe576040517f08c379a00000000000000000000000000000000000000000000000000000000081526004016105f590611e5e565b60405180910390fd5b808360030160008282546106129190611ead565b9250508190555060008273ffffffffffffffffffffffffffffffffffffffff168260405161063f90611f0f565b60006040518083038185875af1925050503d806000811461067c576040519150601f19603f3d011682016040523d82523d6000602084013e610681565b606091505b50509050806106c5576040517f08c379a00000000000000000000000000000000000000000000000000000000081526004016106bc90611f70565b60405180910390fd5b600160009054906101000a900473ffffffffffffffffffffffffffffffffffffffff1673ffffffffffffffffffffffffffffffffffffffff1663a9059cbb600360009054906101000a900473ffffffffffffffffffffffffffffffffffffffff166064856107339190611f90565b6040518363ffffffff1660e01b815260040161075092919061185b565b602060405180830381600087803b15801561076a57600080fd5b505af115801561077e573d6000803e3d6000fd5b505050506040513d601f19601f820116820180604052508101906107a29190612016565b507f21e12a7cad0da5928167e1084ea4d5fdf8d9af66657a2543a9ac76a0ca0814778584846040516107d693929190612043565b60405180910390a1600660008473ffffffffffffffffffffffffffffffffffffffff1673ffffffffffffffffffffffffffffffffffffffff1681526020019081526020016000206000868152602001908152602001600020600090555050505050565b60006108436115b7565b600160009054906101000a900473ffffffffffffffffffffffffffffffffffffffff1673ffffffffffffffffffffffffffffffffffffffff166318160ddd6040518163ffffffff1660e01b815260040160206040518083038186803b1580156108ab57600080fd5b505afa1580156108bf573d6000803e3d6000fd5b505050506040513d601f19601f820116820180604052508101906108e3919061208f565b905090565b6108f06115b7565b80600073ffffffffffffffffffffffffffffffffffffffff168173ffffffffffffffffffffffffffffffffffffffff16141561092b57600080fd5b60008273ffffffffffffffffffffffffffffffffffffffff164760405161095190611f0f565b60006040518083038185875af1925050503d806000811461098e576040519150601f19603f3d011682016040523d82523d6000602084013e610993565b606091505b50509050806109d7576040517f08c379a00000000000000000000000000000000000000000000000000000000081526004016109ce90611f70565b60405180910390fd5b505050565b6060600060045467ffffffffffffffff8111156109fc576109fb611bf7565b5b604051908082528060200260200182016040528015610a3557816020015b610a22611701565b815260200190600190039081610a1a5790505b5090506000600190505b6004548111610c61576005600085815260200190815260200160002060405180610100016040529081600082018054610a77906120eb565b80601f0160208091040260200160405190810160405280929190818152602001828054610aa3906120eb565b8015610af05780601f10610ac557610100808354040283529160200191610af0565b820191906000526020600020905b815481529060010190602001808311610ad357829003601f168201915b50505050508152602001600182018054610b09906120eb565b80601f0160208091040260200160405190810160405280929190818152602001828054610b35906120eb565b8015610b825780601f10610b5757610100808354040283529160200191610b82565b820191906000526020600020905b815481529060010190602001808311610b6557829003601f168201915b50505050508152602001600282015481526020016003820154815260200160048201548152602001600582015481526020016006820160009054906101000a900460ff161515151581526020016006820160019054906101000a900473ffffffffffffffffffffffffffffffffffffffff1673ffffffffffffffffffffffffffffffffffffffff1673ffffffffffffffffffffffffffffffffffffffff168152505082600183610c329190611ead565b81518110610c4357610c4261211d565b5b60200260200101819052508080610c599061214c565b915050610a3f565b5080915050919050565b600080339050600160009054906101000a900473ffffffffffffffffffffffffffffffffffffffff1673ffffffffffffffffffffffffffffffffffffffff166370a08231826040518263ffffffff1660e01b8152600401610ccc9190611bd2565b60206040518083038186803b158015610ce457600080fd5b505afa158015610cf8573d6000803e3d6000fd5b505050506040513d601f19601f82011682018060405250810190610d1c919061208f565b91505090565b6000600660003373ffffffffffffffffffffffffffffffffffffffff1673ffffffffffffffffffffffffffffffffffffffff1681526020019081526020016000206000838152602001908152602001600020549050919050565b600080339050670de0b6b3a76400008173ffffffffffffffffffffffffffffffffffffffff1631610dad91906121c4565b91505090565b610dbb6115b7565b610dc56000611635565b565b60008060009054906101000a900473ffffffffffffffffffffffffffffffffffffffff16905090565b6060600060045467ffffffffffffffff811115610e1057610e0f611bf7565b5b604051908082528060200260200182016040528015610e4957816020015b610e36611701565b815260200190600190039081610e2e5790505b5090506000600190505b6004548111611075576005600082815260200190815260200160002060405180610100016040529081600082018054610e8b906120eb565b80601f0160208091040260200160405190810160405280929190818152602001828054610eb7906120eb565b8015610f045780601f10610ed957610100808354040283529160200191610f04565b820191906000526020600020905b815481529060010190602001808311610ee757829003601f168201915b50505050508152602001600182018054610f1d906120eb565b80601f0160208091040260200160405190810160405280929190818152602001828054610f49906120eb565b8015610f965780601f10610f6b57610100808354040283529160200191610f96565b820191906000526020600020905b815481529060010190602001808311610f7957829003601f168201915b50505050508152602001600282015481526020016003820154815260200160048201548152602001600582015481526020016006820160009054906101000a900460ff161515151581526020016006820160019054906101000a900473ffffffffffffffffffffffffffffffffffffffff1673ffffffffffffffffffffffffffffffffffffffff1673ffffffffffffffffffffffffffffffffffffffff1681525050826001836110469190611ead565b815181106110575761105661211d565b5b6020026020010181905250808061106d9061214c565b915050610e53565b508091505090565b60025481565b6000670de0b6b3a76400003461109991906121c4565b9050600033905060006110ab84610525565b9050600042905060006005600087815260200190815260200160002090508060050154821115611110576040517f08c379a000000000000000000000000000000000000000000000000000000000815260040161110790612241565b60405180910390fd5b60018511611153576040517f08c379a000000000000000000000000000000000000000000000000000000000815260040161114a906122ad565b60405180910390fd5b84600660008673ffffffffffffffffffffffffffffffffffffffff1673ffffffffffffffffffffffffffffffffffffffff168152602001908152602001600020600088815260200190815260200160002081905550600160009054906101000a900473ffffffffffffffffffffffffffffffffffffffff1673ffffffffffffffffffffffffffffffffffffffff1663a9059cbb856064886111f49190611f90565b6040518363ffffffff1660e01b815260040161121192919061185b565b602060405180830381600087803b15801561122b57600080fd5b505af115801561123f573d6000803e3d6000fd5b505050506040513d601f19601f820116820180604052508101906112639190612016565b508481600301600082825461127891906122cd565b9250508190555061128886610525565b858461129491906122cd565b146112a2576112a1612323565b5b7fae8785da7bae7df1ae7a3d1838c261e59d1c7294715e21a2d56b9968650a73f48685876040516112d593929190612043565b60405180910390a1505050505050565b600360009054906101000a900473ffffffffffffffffffffffffffffffffffffffff1681565b6113136115b7565b6000339050600042905060006283d6008261132e91906122cd565b9050670de0b6b3a764000085101561137b576040517f08c379a000000000000000000000000000000000000000000000000000000000815260040161137290611e5e565b60405180910390fd5b6004600081548092919061138e9061214c565b9190505550604051806101000160405280878152602001858152602001868152602001600081526020018381526020018281526020016000151581526020018473ffffffffffffffffffffffffffffffffffffffff16815250600560006004548152602001908152602001600020600082015181600001908051906020019061141892919061175e565b50602082015181600101908051906020019061143592919061175e565b5060408201518160020155606082015181600301556080820151816004015560a0820151816005015560c08201518160060160006101000a81548160ff02191690831515021790555060e08201518160060160016101000a81548173ffffffffffffffffffffffffffffffffffffffff021916908373ffffffffffffffffffffffffffffffffffffffff1602179055509050507f31a00394a14f74980834919b00d802e2c08179436e9e03610463ac88da146b66838787846040516114fd949392919061238b565b60405180910390a1505050505050565b6115156115b7565b600073ffffffffffffffffffffffffffffffffffffffff168173ffffffffffffffffffffffffffffffffffffffff161415611585576040517f08c379a000000000000000000000000000000000000000000000000000000000815260040161157c90612449565b60405180910390fd5b61158e81611635565b50565b600160009054906101000a900473ffffffffffffffffffffffffffffffffffffffff1681565b6115bf6116f9565b73ffffffffffffffffffffffffffffffffffffffff166115dd610dc7565b73ffffffffffffffffffffffffffffffffffffffff1614611633576040517f08c379a000000000000000000000000000000000000000000000000000000000815260040161162a906124b5565b60405180910390fd5b565b60008060009054906101000a900473ffffffffffffffffffffffffffffffffffffffff169050816000806101000a81548173ffffffffffffffffffffffffffffffffffffffff021916908373ffffffffffffffffffffffffffffffffffffffff1602179055508173ffffffffffffffffffffffffffffffffffffffff168173ffffffffffffffffffffffffffffffffffffffff167f8be0079c531659141344cd1fd0a4f28419497f9722a3daafe3b4186f6b6457e060405160405180910390a35050565b600033905090565b604051806101000160405280606081526020016060815260200160008152602001600081526020016000815260200160008152602001600015158152602001600073ffffffffffffffffffffffffffffffffffffffff1681525090565b82805461176a906120eb565b90600052602060002090601f01602090048101928261178c57600085556117d3565b82601f106117a557805160ff19168380011785556117d3565b828001600101855582156117d3579182015b828111156117d25782518255916020019190600101906117b7565b5b5090506117e091906117e4565b5090565b5b808211156117fd5760008160009055506001016117e5565b5090565b600073ffffffffffffffffffffffffffffffffffffffff82169050919050565b600061182c82611801565b9050919050565b61183c81611821565b82525050565b6000819050919050565b61185581611842565b82525050565b60006040820190506118706000830185611833565b61187d602083018461184c565b9392505050565b6000602082019050611899600083018461184c565b92915050565b6000604051905090565b600080fd5b600080fd5b6118bc81611821565b81146118c757600080fd5b50565b6000813590506118d9816118b3565b92915050565b6000602082840312156118f5576118f46118a9565b5b6000611903848285016118ca565b91505092915050565b61191581611842565b811461192057600080fd5b50565b6000813590506119328161190c565b92915050565b60006020828403121561194e5761194d6118a9565b5b600061195c84828501611923565b91505092915050565b600081519050919050565b600082825260208201905092915050565b6000819050602082019050919050565b600081519050919050565b600082825260208201905092915050565b60005b838110156119cb5780820151818401526020810190506119b0565b838111156119da576000848401525b50505050565b6000601f19601f8301169050919050565b60006119fc82611991565b611a06818561199c565b9350611a168185602086016119ad565b611a1f816119e0565b840191505092915050565b611a3381611842565b82525050565b60008115159050919050565b611a4e81611a39565b82525050565b611a5d81611821565b82525050565b6000610100830160008301518482036000860152611a8182826119f1565b91505060208301518482036020860152611a9b82826119f1565b9150506040830151611ab06040860182611a2a565b506060830151611ac36060860182611a2a565b506080830151611ad66080860182611a2a565b5060a0830151611ae960a0860182611a2a565b5060c0830151611afc60c0860182611a45565b5060e0830151611b0f60e0860182611a54565b508091505092915050565b6000611b268383611a63565b905092915050565b6000602082019050919050565b6000611b4682611965565b611b508185611970565b935083602082028501611b6285611981565b8060005b85811015611b9e5784840389528151611b7f8582611b1a565b9450611b8a83611b2e565b925060208a01995050600181019050611b66565b50829750879550505050505092915050565b60006020820190508181036000830152611bca8184611b3b565b905092915050565b6000602082019050611be76000830184611833565b92915050565b600080fd5b600080fd5b7f4e487b7100000000000000000000000000000000000000000000000000000000600052604160045260246000fd5b611c2f826119e0565b810181811067ffffffffffffffff82111715611c4e57611c4d611bf7565b5b80604052505050565b6000611c6161189f565b9050611c6d8282611c26565b919050565b600067ffffffffffffffff821115611c8d57611c8c611bf7565b5b611c96826119e0565b9050602081019050919050565b82818337600083830152505050565b6000611cc5611cc084611c72565b611c57565b905082815260208101848484011115611ce157611ce0611bf2565b5b611cec848285611ca3565b509392505050565b600082601f830112611d0957611d08611bed565b5b8135611d19848260208601611cb2565b91505092915050565b600080600060608486031215611d3b57611d3a6118a9565b5b600084013567ffffffffffffffff811115611d5957611d586118ae565b5b611d6586828701611cf4565b9350506020611d7686828701611923565b925050604084013567ffffffffffffffff811115611d9757611d966118ae565b5b611da386828701611cf4565b9150509250925092565b6000819050919050565b6000611dd2611dcd611dc884611801565b611dad565b611801565b9050919050565b6000611de482611db7565b9050919050565b6000611df682611dd9565b9050919050565b611e0681611deb565b82525050565b6000602082019050611e216000830184611dfd565b92915050565b600082825260208201905092915050565b50565b6000611e48600083611e27565b9150611e5382611e38565b600082019050919050565b60006020820190508181036000830152611e7781611e3b565b9050919050565b7f4e487b7100000000000000000000000000000000000000000000000000000000600052601160045260246000fd5b6000611eb882611842565b9150611ec383611842565b925082821015611ed657611ed5611e7e565b5b828203905092915050565b600081905092915050565b6000611ef9600083611ee1565b9150611f0482611e38565b600082019050919050565b6000611f1a82611eec565b9150819050919050565b7f5478206661696c65640000000000000000000000000000000000000000000000600082015250565b6000611f5a600983611e27565b9150611f6582611f24565b602082019050919050565b60006020820190508181036000830152611f8981611f4d565b9050919050565b6000611f9b82611842565b9150611fa683611842565b9250817fffffffffffffffffffffffffffffffffffffffffffffffffffffffffffffffff0483118215151615611fdf57611fde611e7e565b5b828202905092915050565b611ff381611a39565b8114611ffe57600080fd5b50565b60008151905061201081611fea565b92915050565b60006020828403121561202c5761202b6118a9565b5b600061203a84828501612001565b91505092915050565b6000606082019050612058600083018661184c565b6120656020830185611833565b612072604083018461184c565b949350505050565b6000815190506120898161190c565b92915050565b6000602082840312156120a5576120a46118a9565b5b60006120b38482850161207a565b91505092915050565b7f4e487b7100000000000000000000000000000000000000000000000000000000600052602260045260246000fd5b6000600282049050600182168061210357607f821691505b60208210811415612117576121166120bc565b5b50919050565b7f4e487b7100000000000000000000000000000000000000000000000000000000600052603260045260246000fd5b600061215782611842565b91507fffffffffffffffffffffffffffffffffffffffffffffffffffffffffffffffff82141561218a57612189611e7e565b5b600182019050919050565b7f4e487b7100000000000000000000000000000000000000000000000000000000600052601260045260246000fd5b60006121cf82611842565b91506121da83611842565b9250826121ea576121e9612195565b5b828204905092915050565b7f656e646564000000000000000000000000000000000000000000000000000000600082015250565b600061222b600583611e27565b9150612236826121f5565b602082019050919050565b6000602082019050818103600083015261225a8161221e565b9050919050565b7f6f6b6c6d00000000000000000000000000000000000000000000000000000000600082015250565b6000612297600483611e27565b91506122a282612261565b602082019050919050565b600060208201905081810360008301526122c68161228a565b9050919050565b60006122d882611842565b91506122e383611842565b9250827fffffffffffffffffffffffffffffffffffffffffffffffffffffffffffffffff0382111561231857612317611e7e565b5b828201905092915050565b7f4e487b7100000000000000000000000000000000000000000000000000000000600052600160045260246000fd5b600061235d82611991565b6123678185611e27565b93506123778185602086016119ad565b612380816119e0565b840191505092915050565b60006080820190506123a06000830187611833565b81810360208301526123b28186612352565b90506123c1604083018561184c565b6123ce606083018461184c565b95945050505050565b7f4f776e61626c653a206e6577206f776e657220697320746865207a65726f206160008201527f6464726573730000000000000000000000000000000000000000000000000000602082015250565b6000612433602683611e27565b915061243e826123d7565b604082019050919050565b6000602082019050818103600083015261246281612426565b9050919050565b7f4f776e61626c653a2063616c6c6572206973206e6f7420746865206f776e6572600082015250565b600061249f602083611e27565b91506124aa82612469565b602082019050919050565b600060208201905081810360008301526124ce81612492565b905091905056fea26469706673582212203d50c63ff1f5af8efc82f48b0ac7fee05b6b1977fd397c56c6ddb16d280b1aae64736f6c6343000809003360806040523480156200001157600080fd5b506040516200179b3803806200179b833981810160405281019062000037919062000358565b6040518060400160405280600581526020017f536f6c61720000000000000000000000000000000000000000000000000000008152506040518060400160405280600381526020017f534c5200000000000000000000000000000000000000000000000000000000008152508160039080519060200190620000bb92919062000268565b508060049080519060200190620000d492919062000268565b505050620000e93382620000f060201b60201c565b506200052c565b600073ffffffffffffffffffffffffffffffffffffffff168273ffffffffffffffffffffffffffffffffffffffff16141562000163576040517f08c379a00000000000000000000000000000000000000000000000000000000081526004016200015a90620003eb565b60405180910390fd5b62000177600083836200025e60201b60201c565b80600260008282546200018b91906200043c565b92505081905550806000808473ffffffffffffffffffffffffffffffffffffffff1673ffffffffffffffffffffffffffffffffffffffff168152602001908152602001600020600082825401925050819055508173ffffffffffffffffffffffffffffffffffffffff16600073ffffffffffffffffffffffffffffffffffffffff167fddf252ad1be2c89b69c2b068fc378daa952ba7f163c4a11628f55a4df523b3ef836040516200023e9190620004aa565b60405180910390a36200025a600083836200026360201b60201c565b5050565b505050565b505050565b8280546200027690620004f6565b90600052602060002090601f0160209004810192826200029a5760008555620002e6565b82601f10620002b557805160ff1916838001178555620002e6565b82800160010185558215620002e6579182015b82811115620002e5578251825591602001919060010190620002c8565b5b509050620002f59190620002f9565b5090565b5b8082111562000314576000816000905550600101620002fa565b5090565b600080fd5b6000819050919050565b62000332816200031d565b81146200033e57600080fd5b50565b600081519050620003528162000327565b92915050565b60006020828403121562000371576200037062000318565b5b6000620003818482850162000341565b91505092915050565b600082825260208201905092915050565b7f45524332303a206d696e7420746f20746865207a65726f206164647265737300600082015250565b6000620003d3601f836200038a565b9150620003e0826200039b565b602082019050919050565b600060208201905081810360008301526200040681620003c4565b9050919050565b7f4e487b7100000000000000000000000000000000000000000000000000000000600052601160045260246000fd5b600062000449826200031d565b915062000456836200031d565b9250827fffffffffffffffffffffffffffffffffffffffffffffffffffffffffffffffff038211156200048e576200048d6200040d565b5b828201905092915050565b620004a4816200031d565b82525050565b6000602082019050620004c1600083018462000499565b92915050565b7f4e487b7100000000000000000000000000000000000000000000000000000000600052602260045260246000fd5b600060028204905060018216806200050f57607f821691505b60208210811415620005265762000525620004c7565b5b50919050565b61125f806200053c6000396000f3fe608060405234801561001057600080fd5b50600436106100a95760003560e01c80633950935111610071578063395093511461016857806370a082311461019857806395d89b41146101c8578063a457c2d7146101e6578063a9059cbb14610216578063dd62ed3e14610246576100a9565b806306fdde03146100ae578063095ea7b3146100cc57806318160ddd146100fc57806323b872dd1461011a578063313ce5671461014a575b600080fd5b6100b6610276565b6040516100c39190610b19565b60405180910390f35b6100e660048036038101906100e19190610bd4565b610308565b6040516100f39190610c2f565b60405180910390f35b61010461032b565b6040516101119190610c59565b60405180910390f35b610134600480360381019061012f9190610c74565b610335565b6040516101419190610c2f565b60405180910390f35b610152610364565b60405161015f9190610ce3565b60405180910390f35b610182600480360381019061017d9190610bd4565b61036d565b60405161018f9190610c2f565b60405180910390f35b6101b260048036038101906101ad9190610cfe565b6103a4565b6040516101bf9190610c59565b60405180910390f35b6101d06103ec565b6040516101dd9190610b19565b60405180910390f35b61020060048036038101906101fb9190610bd4565b61047e565b60405161020d9190610c2f565b60405180910390f35b610230600480360381019061022b9190610bd4565b6104f5565b60405161023d9190610c2f565b60405180910390f35b610260600480360381019061025b9190610d2b565b610518565b60405161026d9190610c59565b60405180910390f35b60606003805461028590610d9a565b80601f01602080910402602001604051908101604052809291908181526020018280546102b190610d9a565b80156102fe5780601f106102d3576101008083540402835291602001916102fe565b820191906000526020600020905b8154815290600101906020018083116102e157829003601f168201915b5050505050905090565b60008061031361059f565b90506103208185856105a7565b600191505092915050565b6000600254905090565b60008061034061059f565b905061034d858285610772565b6103588585856107fe565b60019150509392505050565b60006012905090565b60008061037861059f565b905061039981858561038a8589610518565b6103949190610dfb565b6105a7565b600191505092915050565b60008060008373ffffffffffffffffffffffffffffffffffffffff1673ffffffffffffffffffffffffffffffffffffffff168152602001908152602001600020549050919050565b6060600480546103fb90610d9a565b80601f016020809104026020016040519081016040528092919081815260200182805461042790610d9a565b80156104745780601f1061044957610100808354040283529160200191610474565b820191906000526020600020905b81548152906001019060200180831161045757829003601f168201915b5050505050905090565b60008061048961059f565b905060006104978286610518565b9050838110156104dc576040517f08c379a00000000000000000000000000000000000000000000000000000000081526004016104d390610ec3565b60405180910390fd5b6104e982868684036105a7565b60019250505092915050565b60008061050061059f565b905061050d8185856107fe565b600191505092915050565b6000600160008473ffffffffffffffffffffffffffffffffffffffff1673ffffffffffffffffffffffffffffffffffffffff16815260200190815260200160002060008373ffffffffffffffffffffffffffffffffffffffff1673ffffffffffffffffffffffffffffffffffffffff16815260200190815260200160002054905092915050565b600033905090565b600073ffffffffffffffffffffffffffffffffffffffff168373ffffffffffffffffffffffffffffffffffffffff161415610617576040517f08c379a000000000000000000000000000000000000000000000000000000000815260040161060e90610f55565b60405180910390fd5b600073ffffffffffffffffffffffffffffffffffffffff168273ffffffffffffffffffffffffffffffffffffffff161415610687576040517f08c379a000000000000000000000000000000000000000000000000000000000815260040161067e90610fe7565b60405180910390fd5b80600160008573ffffffffffffffffffffffffffffffffffffffff1673ffffffffffffffffffffffffffffffffffffffff16815260200190815260200160002060008473ffffffffffffffffffffffffffffffffffffffff1673ffffffffffffffffffffffffffffffffffffffff168152602001908152602001600020819055508173ffffffffffffffffffffffffffffffffffffffff168373ffffffffffffffffffffffffffffffffffffffff167f8c5be1e5ebec7d5bd14f71427d1e84f3dd0314c0f7b2291e5b200ac8c7c3b925836040516107659190610c59565b60405180910390a3505050565b600061077e8484610518565b90507fffffffffffffffffffffffffffffffffffffffffffffffffffffffffffffffff81146107f857818110156107ea576040517f08c379a00000000000000000000000000000000000000000000000000000000081526004016107e190611053565b60405180910390fd5b6107f784848484036105a7565b5b50505050565b600073ffffffffffffffffffffffffffffffffffffffff168373ffffffffffffffffffffffffffffffffffffffff16141561086e576040517f08c379a0000000000000000000000000000000000000000000000000000000008152600401610865906110e5565b60405180910390fd5b600073ffffffffffffffffffffffffffffffffffffffff168273ffffffffffffffffffffffffffffffffffffffff1614156108de576040517f08c379a00000000000000000000000000000000000000000000000000000000081526004016108d590611177565b60405180910390fd5b6108e9838383610a76565b60008060008573ffffffffffffffffffffffffffffffffffffffff1673ffffffffffffffffffffffffffffffffffffffff1681526020019081526020016000205490508181101561096f576040517f08c379a000000000000000000000000000000000000000000000000000000000815260040161096690611209565b60405180910390fd5b8181036000808673ffffffffffffffffffffffffffffffffffffffff1673ffffffffffffffffffffffffffffffffffffffff16815260200190815260200160002081905550816000808573ffffffffffffffffffffffffffffffffffffffff1673ffffffffffffffffffffffffffffffffffffffff168152602001908152602001600020600082825401925050819055508273ffffffffffffffffffffffffffffffffffffffff168473ffffffffffffffffffffffffffffffffffffffff167fddf252ad1be2c89b69c2b068fc378daa952ba7f163c4a11628f55a4df523b3ef84604051610a5d9190610c59565b60405180910390a3610a70848484610a7b565b50505050565b505050565b505050565b600081519050919050565b600082825260208201905092915050565b60005b83811015610aba578082015181840152602081019050610a9f565b83811115610ac9576000848401525b50505050565b6000601f19601f8301169050919050565b6000610aeb82610a80565b610af58185610a8b565b9350610b05818560208601610a9c565b610b0e81610acf565b840191505092915050565b60006020820190508181036000830152610b338184610ae0565b905092915050565b600080fd5b600073ffffffffffffffffffffffffffffffffffffffff82169050919050565b6000610b6b82610b40565b9050919050565b610b7b81610b60565b8114610b8657600080fd5b50565b600081359050610b9881610b72565b92915050565b6000819050919050565b610bb181610b9e565b8114610bbc57600080fd5b50565b600081359050610bce81610ba8565b92915050565b60008060408385031215610beb57610bea610b3b565b5b6000610bf985828601610b89565b9250506020610c0a85828601610bbf565b9150509250929050565b60008115159050919050565b610c2981610c14565b82525050565b6000602082019050610c446000830184610c20565b92915050565b610c5381610b9e565b82525050565b6000602082019050610c6e6000830184610c4a565b92915050565b600080600060608486031215610c8d57610c8c610b3b565b5b6000610c9b86828701610b89565b9350506020610cac86828701610b89565b9250506040610cbd86828701610bbf565b9150509250925092565b600060ff82169050919050565b610cdd81610cc7565b82525050565b6000602082019050610cf86000830184610cd4565b92915050565b600060208284031215610d1457610d13610b3b565b5b6000610d2284828501610b89565b91505092915050565b60008060408385031215610d4257610d41610b3b565b5b6000610d5085828601610b89565b9250506020610d6185828601610b89565b9150509250929050565b7f4e487b7100000000000000000000000000000000000000000000000000000000600052602260045260246000fd5b60006002820490506001821680610db257607f821691505b60208210811415610dc657610dc5610d6b565b5b50919050565b7f4e487b7100000000000000000000000000000000000000000000000000000000600052601160045260246000fd5b6000610e0682610b9e565b9150610e1183610b9e565b9250827fffffffffffffffffffffffffffffffffffffffffffffffffffffffffffffffff03821115610e4657610e45610dcc565b5b828201905092915050565b7f45524332303a2064656372656173656420616c6c6f77616e63652062656c6f7760008201527f207a65726f000000000000000000000000000000000000000000000000000000602082015250565b6000610ead602583610a8b565b9150610eb882610e51565b604082019050919050565b60006020820190508181036000830152610edc81610ea0565b9050919050565b7f45524332303a20617070726f76652066726f6d20746865207a65726f2061646460008201527f7265737300000000000000000000000000000000000000000000000000000000602082015250565b6000610f3f602483610a8b565b9150610f4a82610ee3565b604082019050919050565b60006020820190508181036000830152610f6e81610f32565b9050919050565b7f45524332303a20617070726f766520746f20746865207a65726f20616464726560008201527f7373000000000000000000000000000000000000000000000000000000000000602082015250565b6000610fd1602283610a8b565b9150610fdc82610f75565b604082019050919050565b6000602082019050818103600083015261100081610fc4565b9050919050565b7f45524332303a20696e73756666696369656e7420616c6c6f77616e6365000000600082015250565b600061103d601d83610a8b565b915061104882611007565b602082019050919050565b6000602082019050818103600083015261106c81611030565b9050919050565b7f45524332303a207472616e736665722066726f6d20746865207a65726f20616460008201527f6472657373000000000000000000000000000000000000000000000000000000602082015250565b60006110cf602583610a8b565b91506110da82611073565b604082019050919050565b600060208201905081810360008301526110fe816110c2565b9050919050565b7f45524332303a207472616e7366657220746f20746865207a65726f206164647260008201527f6573730000000000000000000000000000000000000000000000000000000000602082015250565b6000611161602383610a8b565b915061116c82611105565b604082019050919050565b6000602082019050818103600083015261119081611154565b9050919050565b7f45524332303a207472616e7366657220616d6f756e742065786365656473206260008201527f616c616e63650000000000000000000000000000000000000000000000000000602082015250565b60006111f3602683610a8b565b91506111fe82611197565b604082019050919050565b60006020820190508181036000830152611222816111e6565b905091905056fea264697066735822122075fc791f4ce82b1392e3b00b729dd544cf1888bc3de821e59328194579430d4564736f6c63430008090033",
    "linkReferences": {},
    "deployedLinkReferences": {}
}